{
  "address": "0xeAa035562095fbD76D421f5e71663385A94dba59",
  "abi": [
    {
      "inputs": [
        {
          "internalType": "address",
          "name": "exampleExternalContractAddress",
          "type": "address"
        }
      ],
      "stateMutability": "nonpayable",
      "type": "constructor"
    },
    {
      "inputs": [],
      "name": "AlreadyExecuted",
      "type": "error"
    },
    {
      "inputs": [],
      "name": "DeadlineNotReached",
      "type": "error"
    },
    {
      "inputs": [],
      "name": "DeadlineReached",
      "type": "error"
    },
    {
      "inputs": [],
      "name": "NoFundToWithdraw",
      "type": "error"
    },
    {
      "inputs": [],
      "name": "WithdrawFailure",
      "type": "error"
    },
    {
      "inputs": [],
      "name": "WithdrawNotAllowed",
      "type": "error"
    },
    {
      "anonymous": false,
      "inputs": [
        {
          "indexed": false,
          "internalType": "address",
          "name": "",
          "type": "address"
        },
        {
          "indexed": false,
          "internalType": "uint256",
          "name": "",
          "type": "uint256"
        }
      ],
      "name": "Stake",
      "type": "event"
    },
    {
      "inputs": [
        {
          "internalType": "address",
          "name": "",
          "type": "address"
        }
      ],
      "name": "balances",
      "outputs": [
        {
          "internalType": "uint256",
          "name": "",
          "type": "uint256"
        }
      ],
      "stateMutability": "view",
      "type": "function"
    },
    {
      "inputs": [],
      "name": "deadline",
      "outputs": [
        {
          "internalType": "uint256",
          "name": "",
          "type": "uint256"
        }
      ],
      "stateMutability": "view",
      "type": "function"
    },
    {
      "inputs": [],
      "name": "exampleExternalContract",
      "outputs": [
        {
          "internalType": "contract ExampleExternalContract",
          "name": "",
          "type": "address"
        }
      ],
      "stateMutability": "view",
      "type": "function"
    },
    {
      "inputs": [],
      "name": "execute",
      "outputs": [],
      "stateMutability": "nonpayable",
      "type": "function"
    },
    {
      "inputs": [],
      "name": "executedOnce",
      "outputs": [
        {
          "internalType": "bool",
          "name": "",
          "type": "bool"
        }
      ],
      "stateMutability": "view",
      "type": "function"
    },
    {
      "inputs": [],
      "name": "openForWithdraw",
      "outputs": [
        {
          "internalType": "bool",
          "name": "",
          "type": "bool"
        }
      ],
      "stateMutability": "view",
      "type": "function"
    },
    {
      "inputs": [],
      "name": "owner",
      "outputs": [
        {
          "internalType": "address",
          "name": "",
          "type": "address"
        }
      ],
      "stateMutability": "view",
      "type": "function"
    },
    {
      "inputs": [],
      "name": "stake",
      "outputs": [],
      "stateMutability": "payable",
      "type": "function"
    },
    {
      "inputs": [],
      "name": "threshold",
      "outputs": [
        {
          "internalType": "uint256",
          "name": "",
          "type": "uint256"
        }
      ],
      "stateMutability": "view",
      "type": "function"
    },
    {
      "inputs": [],
      "name": "timeLeft",
      "outputs": [
        {
          "internalType": "uint256",
          "name": "",
          "type": "uint256"
        }
      ],
      "stateMutability": "view",
      "type": "function"
    },
    {
      "inputs": [],
      "name": "withdraw",
      "outputs": [],
      "stateMutability": "payable",
      "type": "function"
    },
    {
      "stateMutability": "payable",
      "type": "receive"
    }
  ],
  "transactionHash": "0x9c0ef8c5f18f4c1d08d878952d9e1f85a8ffe08adb16b9e840ae09eeae60e459",
  "args": [
    "0x5B7B2757EBC7cEf34cce105fF487EF44d652c18d"
  ],
  "numDeployments": 1,
  "solcInputHash": "306975260e41f2803df46ac3cbd828bb",
  "bytecode": "0x608060405261000f42601e61009b565b6001556002805461ffff1916905534801561002957600080fd5b506040516107593803806107598339810160408190526100489161006d565b600080546001600160a01b0319166001600160a01b03929092169190911790556100bf565b60006020828403121561007e578081fd5b81516001600160a01b0381168114610094578182fd5b9392505050565b600082198211156100ba57634e487b7160e01b81526011600452602481fd5b500190565b61068b806100ce6000396000f3fe6080604052600436106100a05760003560e01c80633ccfd60b116100645780633ccfd60b1461015657806342cde4e81461015e578063614619541461017a5780638da5cb5b1461018f5780639876a643146101cd5780639f75f227146101e757600080fd5b80630bc0ba06146100b45780631300a6d1146100e857806327e235e31461010b57806329dcb0cf146101385780633a4b66f11461014e57600080fd5b366100af576100ad610207565b005b600080fd5b3480156100c057600080fd5b506002546100d390610100900460ff1681565b60405190151581526020015b60405180910390f35b3480156100f457600080fd5b506100fd610277565b6040519081526020016100df565b34801561011757600080fd5b506100fd6101263660046105e4565b60036020526000908152604090205481565b34801561014457600080fd5b506100fd60015481565b6100ad610207565b6100ad61029b565b34801561016a57600080fd5b506100fd670de0b6b3a764000081565b34801561018657600080fd5b506100ad61043d565b34801561019b57600080fd5b506002546101b5906201000090046001600160a01b031681565b6040516001600160a01b0390911681526020016100df565b3480156101d957600080fd5b506002546100d39060ff1681565b3480156101f357600080fd5b506000546101b5906001600160a01b031681565b60015442106102295760405163b08ce5b360e01b815260040160405180910390fd5b3360008181526003602090815260409182902047908190558251938452908301527febedb8b3c678666e7f36970bc8f57abf6d8fa2e828c0da91ea5b75bf68ed101a910160405180910390a1565b600060015442106102885750600090565b426001546102969190610632565b905090565b60008054906101000a90046001600160a01b03166001600160a01b0316639d9a7fe96040518163ffffffff1660e01b815260040160206040518083038186803b1580156102e757600080fd5b505afa1580156102fb573d6000803e3d6000fd5b505050506040513d601f19601f8201168201806040525081019061031f9190610612565b156103615760405162461bcd60e51b815260206004820152600d60248201526c139bdd0818dbdb5c1b195d1959609a1b60448201526064015b60405180910390fd5b6001544210158015610375575060025460ff165b1561042457336000908152600360205260409020546103a757604051632228a78760e01b815260040160405180910390fd5b604051600090339047908381818185875af1925050503d80600081146103e9576040519150601f19603f3d011682016040523d82523d6000602084013e6103ee565b606091505b50509050801561040b573360009081526003602052604081205550565b604051631a0263ed60e01b815260040160405180910390fd5b6040516315e34e0560e01b815260040160405180910390fd5b60008054906101000a90046001600160a01b03166001600160a01b0316639d9a7fe96040518163ffffffff1660e01b815260040160206040518083038186803b15801561048957600080fd5b505afa15801561049d573d6000803e3d6000fd5b505050506040513d601f19601f820116820180604052508101906104c19190610612565b156104fe5760405162461bcd60e51b815260206004820152600d60248201526c139bdd0818dbdb5c1b195d1959609a1b6044820152606401610358565b600254610100900460ff161561052757604051630dc1019760e01b815260040160405180910390fd5b60015442101561054a57604051633376277360e11b815260040160405180910390fd5b670de0b6b3a764000047106105c55760008054906101000a90046001600160a01b03166001600160a01b031663522e1177476040518263ffffffff1660e01b81526004016000604051808303818588803b1580156105a757600080fd5b505af11580156105bb573d6000803e3d6000fd5b50505050506105d3565b6002805460ff191660011790555b6002805461ff001916610100179055565b6000602082840312156105f5578081fd5b81356001600160a01b038116811461060b578182fd5b9392505050565b600060208284031215610623578081fd5b8151801515811461060b578182fd5b60008282101561065057634e487b7160e01b81526011600452602481fd5b50039056fea264697066735822122028a8dfe1a2c98af62a3d229da892e5e05d8f3d5e13f36a5019c67c75cec9aad364736f6c63430008040033",
  "devdoc": {
    "kind": "dev",
    "methods": {},
    "version": 1
  },
  "userdoc": {
    "kind": "user",
    "methods": {},
    "version": 1
  },
  "storageLayout": {
    "storage": [
      {
        "astId": 32,
        "contract": "contracts/Staker.sol:Staker",
        "label": "exampleExternalContract",
        "offset": 0,
        "slot": "0",
        "type": "t_contract(ExampleExternalContract)12"
      },
      {
        "astId": 41,
        "contract": "contracts/Staker.sol:Staker",
        "label": "deadline",
        "offset": 0,
        "slot": "1",
        "type": "t_uint256"
      },
      {
        "astId": 44,
        "contract": "contracts/Staker.sol:Staker",
        "label": "openForWithdraw",
        "offset": 0,
        "slot": "2",
        "type": "t_bool"
      },
      {
        "astId": 47,
        "contract": "contracts/Staker.sol:Staker",
        "label": "executedOnce",
        "offset": 1,
        "slot": "2",
        "type": "t_bool"
      },
      {
        "astId": 49,
        "contract": "contracts/Staker.sol:Staker",
        "label": "owner",
        "offset": 2,
        "slot": "2",
        "type": "t_address"
      },
      {
        "astId": 53,
        "contract": "contracts/Staker.sol:Staker",
        "label": "balances",
        "offset": 0,
        "slot": "3",
        "type": "t_mapping(t_address,t_uint256)"
      }
    ],
    "types": {
      "t_address": {
        "encoding": "inplace",
        "label": "address",
        "numberOfBytes": "20"
      },
      "t_bool": {
        "encoding": "inplace",
        "label": "bool",
        "numberOfBytes": "1"
      },
      "t_contract(ExampleExternalContract)12": {
        "encoding": "inplace",
        "label": "contract ExampleExternalContract",
        "numberOfBytes": "20"
      },
      "t_mapping(t_address,t_uint256)": {
        "encoding": "mapping",
        "key": "t_address",
        "label": "mapping(address => uint256)",
        "numberOfBytes": "32",
        "value": "t_uint256"
      },
      "t_uint256": {
        "encoding": "inplace",
        "label": "uint256",
        "numberOfBytes": "32"
      }
    }
  }
}